:020000040800F2
:100000003007002089010008B7170008071300080F
:10001000B51700088F0200080F1900080000000043
:10002000000000000000000000000000BB170008F6
:100030009102000800000000B9170008BD17000871
:10004000A3010008A3010008A3010008A301000800
:10005000A3010008A3010008A3010008A3010008F0
:10006000A3010008A3010008A3010008A3010008E0
:10007000A3010008A3010008A3010008A3010008D0
:10008000A3010008A3010008A3010008A3010008C0
:10009000A3010008A3010008A3010008A3010008B0
:1000A000A3010008A3010008A3010008A3010008A0
:1000B0002D180008A3010008A3010008A3010008EF
:1000C000A3010008A3010008A3010008A301000880
:1000D000A3010008A3010008A3010008A301000870
:1000E000A3010008A3010008A301000800F002F822
:1000F00000F03AF80AA090E8000C82448344AAF188
:100100000107DA4501D100F02FF8AFF2090EBAE885
:100110000F0013F0010F18BFFB1A43F0010318473B
:100120000C1A00002C1A0000103A24BF78C878C1BD
:10013000FAD8520724BF30C830C144BF04680C60ED
:10014000704700000023002400250026103A28BF35
:1001500078C1FBD8520728BF30C148BF0B60704739
:100160001FB51FBD10B510BD00F05CF81146FFF7BC
:10017000F7FF01F0E7FB00F07AF803B4FFF7F2FFB6
:1001800003BC00F07DF8000009488047094800479B
:10019000FEE7FEE7FEE7FEE7FEE7FEE7FEE7FEE737
:1001A000FEE7FEE704480549054A064B7047000094
:1001B00029180008ED000008300100203007002059
:1001C00030030020300300204FF0000200B513463A
:1001D00094469646203922BFA0E80C50A0E80C5067
:1001E000B1F12001BFF4F7AF090728BFA0E80C5018
:1001F00048BF0CC05DF804EB890028BF40F8042B11
:1002000008BF704748BF20F8022B11F0804F18BF7D
:1002100000F8012B704770477047704700487047DF
:10022000D00000207546FFF7F9FFAE46050069468D
:10023000534620F00700854618B020B5FFF7B2FFFF
:10024000BDE820404FF000064FF000074FF00008D7
:100250004FF0000B21F00701AC46ACE8C009ACE858
:10026000C009ACE8C009ACE8C0098D46704710B5BC
:100270000446AFF300802046BDE81040FFF77DBF85
:1002800001491820ABBEFEE7260002007047FEE7DA
:100290007047000070B5044600F00CF90546601C7C
:1002A00002D004480078044400F004F9401BA04246
:1002B000FAD370BD240000202DE9F84FDFF8B89183
:1002C0000024A9F1040B23460F2709F1040AABF11E
:1002D000040EC9E00125A5402A40AA427DD1674EFF
:1002E000D1F804C0ACEB0608B44532D014DCBCF144
:1002F000030F3AD009DCBCF1000F2AD0BCF1010F8A
:100300001CD0BCF1020F31D11DE0BCF1110F17D090
:10031000BCF1120F2AD119E0B8F5881F19D006DCFC
:10032000B8F5803F15D0B8F5801F1FD111E0B8F5A2
:10033000001F0ED0B8F5041F18D10AE0CB6815E0F5
:10034000CB681B1D12E0CB6808330FE0CB680C3381
:100350000CE08B682BB1012B4FF0080303D04561F3
:1003600004E0042302E0056100E00023FF2A01D835
:10037000064601E000F104064FEA840501D9A5F123
:100380002005D6F8008007FA05FC28EA0C0803FAD5
:1003900005F548EA0508C6F800804D68ED0062D50D
:1003A000374DAE6946F00106AE61AD6924F0030633
:1003B00005F001050095334D06EB050CDCF80850FF
:1003C000A607360F07FA06F825EA0805DFF8B88011
:1003D000404503D14FF0000817E044E0DFF8AC805F
:1003E000404502D14FF001080FE0DFF8A4804045FE
:1003F00002D14FF0020808E0DFF89880404502D1B2
:100400004FF0030801E04FF0040808FA06F848EA44
:100410000508CCF808804D68D9F80060ED024D461B
:1004200001D5164300E096432E604D68DAF800606F
:10043000AD02554601D5164300E096432E604D6847
:10044000DBF80060AD035D4601D5164300E096433E
:100450002E604D68DEF80060ED03754601D5164349
:1004600000E096432E60641C0D682A46E5407FF448
:1004700031AFBDE8F88F0000080401400000111002
:10048000001002400000014000080140000C014043
:100490000010014000140140C26821EA02030A4032
:1004A00043EA0241016170470AB1016170470904E2
:1004B000FBE700000148806870470000240000202E
:1004C00070B5040025D094F83D00002520B984F8CB
:1004D0003C50204600F0E0F9242084F83D002068DC
:1004E000016821F0010101602068016841F40041C8
:1004F00001602068016821F40041016000F020FBE8
:100500004D4A6168914201D84C4900E04C4988420B
:1005100001D2012070BD4B492368B0FBF1F15E6848
:1005200026F03F060E435E606368934206D94FF49F
:10053000967359434FF47A73B1FBF3F12368491C66
:100540001E6A26F03F06314319626168914210D855
:100550004900401EB0FBF1F2521CC2F30B02042A08
:1005600001D2042022E0B0FBF1F0401CC0F30B00EC
:100570001CE0A268F2B301EBC10303EB0116431EBA
:10058000B3FBF6F35B1C43F480431B0549D092B3E5
:1005900001EBC10202EB0111401EB0FBF1F0401C67
:1005A000C0F30B0040F4804040F400402168CA6969
:1005B0004CF6FF739A431043C861D4E90710014316
:1005C0002068026822F0C00211430160D4E90301EF
:1005D00001432068826848F2FF339A4311438160E7
:1005E000D4E9050108432168CA6822F0FF021043DC
:1005F000C86001E00EE016E02068016841F00101EA
:1006000001602564202084F83D00256384F83E5075
:10061000002070BD01EB4106431EB3FBF6F35B1CEB
:10062000B3E70120C2E701EB4101401EB0FBF1F04E
:10063000401CC0F30B00B7E7A086010080841E00B9
:1006400000093D0040420F002DE9FF4F83B0002517
:10065000DDE910799A4693460446DDF84880009516
:10066000FFF728FF064694F83D0020287CD1192387
:10067000012285492046009600F0DCFE0028F5D1D5
:1006800094F83C0001286FD0012084F83C002068D9
:100690000168C90703D1016841F0010101602068C8
:1006A000016821F400610160222084F83D004020AF
:1006B00084F83E0025646762A4F82A90608D208546
:1006C0007248E062CDE9008653465A4620460499B6
:1006D00000F032FE00287DD1208DDFF8B491202774
:1006E00068B1012814D00228206801681ED041F4A6
:1006F000806101602068416980690090B6E02068EF
:10070000416981690091016841F400710160ADE0C7
:100710002068016821F48061016072B62068416937
:1007200081690091016841F400710AE041F40061BF
:10073000016072B62068416981690091016821F405
:100740008061016062B691E0032868D801280CD06E
:10075000022843464FF000024946204600960FD03B
:1007600000F068FEB0BB10E08BE032464146204608
:1007700000F006FF70BB20680069616A08706CE0D9
:1007800000F058FE30BB72B634E02068016821F4F6
:100790008061016072B620680069616A0870606AF1
:1007A000401C6062208D401E2085608D401E60854B
:1007B000384846F2A8110068B0FBF1F0C0EBC00069
:1007C00000EB80000090401E009008D02068406937
:1007D000C04300E029E040070CD50098F3E744F857
:1007E000305F6773A573206940F02000206162B616
:1007F00025731AE02068016841F4007101602068E7
:100800000069616A0870606A401C6062218D491E3F
:100810002185618D491E618562B621681BE03246E3
:100820004146204600F0ACFE18B1012007B0BDE8FB
:10083000F08F20680069616A0870606A401C60621D
:10084000218D491E2185618D491E618521684A6976
:10085000D24352070AD409690170606A401C606281
:10086000208D401E2085608D401E6085208D0028D3
:100870007FF46AAF84F83D7084F83E5084F83C50B1
:10088000D4E70220D2E70000020010000000FFFFC2
:10089000040001003000002010B586B00021009156
:1008A00001910291039100680F4988421AD10F4CBF
:1008B000A06940F00800A061A069694600F0080046
:1008C0000490C0200090122001900320039008485B
:1008D000FFF7F2FCE06940F40010E061E06900F429
:1008E0000010049006B010BD0054004000100240FB
:1008F000000C014002488168027811448160704711
:1009000024000020074810B5016841F01001016083
:10091000032000F06DF80F2000F006F800F024F836
:10092000002010BD0020024070B50D4D04464FF46C
:100930007A712878B1FBF0F00A490968B1FBF0F050
:1009400000F0E8FA48B9102C07D200222146501EC8
:1009500000F02EF800206C6070BD012070BD00001A
:100960002400002030000020094808B5816941F0CA
:1009700001018161816901F001010091C16941F0CA
:100980008051C161C06900F08050009008BD000036
:1009900000100240002809DB00F01F0201219140F5
:1009A0004009800000F1E020C0F80011704700000D
:1009B000F0B40E4B1B680C46C3F30223C3F10705CA
:1009C000042D00D90425191D072901D2002300E0B8
:1009D000DB1E012606FA05F1491E214099409E4082
:1009E000761E16403143F0BC00F092BF0CED00E0E3
:1009F000064900F0070208684FF6FF03184040EA76
:100A00000220034A10430860704700000CED00E02C
:100A10000000FA052DE9F0470F46050061D0434E6E
:100A2000306800F00700B84209D2306820F00700B3
:100A300038433060306800F00700B84251D1286870
:100A40003B4C810712D5400703D5606840F4E06055
:100A500060602878000703D5606840F460506060EB
:100A60006068A96820F0F000084360602878C0073B
:100A700028D06868012810D02168022810D0890782
:100A800000292EDA616821F0030101436160FFF75C
:100A900011FD804641F288390DE021688903EFE7B6
:100AA0008901EDE7FFF706FDA0EB0801494502D9F2
:100AB0000320BDE8F0876068696800F00C00B0EBC7
:100AC000810FEFD1306800F00700B8420BD93068D1
:100AD00020F0070038433060306800F00700B8426B
:100AE00001D00120E5E72878400705D56068E9686E
:100AF00020F4E060084360602878000706D560684D
:100B0000296920F4605040EAC100606000F028F8D4
:100B10006168084AC1F30311515CC8400649086086
:100B200006480068FFF700FF0020C2E700200240EF
:100B300000100240121B0008300000202800002096
:100B40000448054900684968044AC1F30221515C20
:100B5000C84070473000002000100240221B0008EF
:100B60000E4A51680E4801F00C03042B11D0082BDB
:100B70000FD10C48C1F38343C903C05C0AD5516847
:100B8000084AC1F34041921E515C054A5043B0FBF4
:100B9000F1F07047044948437047000000100240DC
:100BA00000127A00021B000800093D0030B585B034
:100BB0000020029002200190032003900B4C4FF480
:100BC00080700090A0690D4640F00400A061A0690B
:100BD000694600F0040004900548FFF76DFB60686B
:100BE00020F0E0602843606005B030BD0010024096
:100BF000000801402DE9F84F040070D02078C04D66
:100C0000C00749D06868C0F38100012807D0686830
:100C1000C0F38100022809D16868C00306D528689E
:100C2000800339D560680028E7D035E06068B0F50A
:100C3000803F0BD010B1B0F5A02F11D0286820F460
:100C400080302860286820F4802002E0286840F482
:100C500080302860606890B1FFF72CFC06460AE0FF
:100C6000286840F480202860F0E700BFFFF722FCEE
:100C7000801B642873D828688003F7D50CE0FFF741
:100C800019FC064605E000BFFFF714FC801B642832
:100C9000F0D828688003F7D420789A4E80074FF068
:100CA00001094FF0000839D5686810F00C0F07D023
:100CB0006868C0F38100022809D16868C00306D4BF
:100CC0002868800714D52069012808D110E0206920
:100CD000B0B1C6F80090FFF7EDFB074605E00AE16A
:100CE000FFF7E8FBC01B0228C4D828688007F7D5A7
:100CF0002868616920F0F80040EAC10028600DE032
:100D0000C6F80080FFF7D6FB074604E0FFF7D2FBEA
:100D1000C01B022823D828688007F7D42078000752
:100D20002CD57948A169D9B1C0F80090FFF7C2FB72
:100D3000074604E0FFF7BEFBC01B02280FD8686A15
:100D40008007F7D571484FF4FA510068B0FBF1F015
:100D5000009000BF0098411E0091FAD20EE080E0A2
:100D6000C0F80080FFF7A6FB074604E0FFF7A2FBF0
:100D7000C01B022875D8686A8007F7D4207840071E
:100D800060D5E8690027C00008D4E86940F08050C9
:100D9000E861E869012700F0805000905C48016834
:100DA000C90513D40168834641F480710160FFF7DF
:100DB00081FB824606E000BFFFF77CFBA0EB0A0048
:100DC00064284ED8DBF80000C005F5D5E06801289E
:100DD0000AD008B1052813D0286A20F00100286243
:100DE000286A20F0040002E0286A40F0010028622E
:100DF000E06841F2883B98B1FFF75CFB82460BE06C
:100E0000286A40F004002862EEE700BFFFF752FBBB
:100E1000A0EB0A0159455AD8286A8007F6D50CE09C
:100E2000FFF748FB824605E0FFF744FBA0EB0A0111
:100E300059454CD8286A8007F6D41FB1E86920F0DC
:100E40008050E861E06988B36968C1F381010229D3
:100E500044D00228C6F8608004D0FFF72BFB04467C
:100E600038E034E0FFF726FB074604E0FFF722FBFB
:100E7000C01B02282BD828688001F7D4206AB0F55F
:100E8000803F05D16868A16820F40030084368609D
:100E9000D4E908010843696821F4741108436860C3
:100EA000C6F86090FFF706FB044606E025E000BFA9
:100EB000FFF700FB001B022809D828688001F7D53E
:100EC0001BE000BFFFF7F6FA001B022802D903203F
:100ED000BDE8F88F28688001F4D40EE00128F7D02F
:100EE0006868226A00F48031914204D1616A00F49A
:100EF0007010884201D00120EAE70020E8E70000F6
:100F000000100240000042428004424230000020B3
:100F10000070004010B5401EB0F1807F01D3012069
:100F200010BD4FF0E02460610F21601700F0F0FC6D
:100F30000020A06107202061002010BD704770478D
:100F400070B590F83C20012A26D0012480F83C405E
:100F5000022280F83D2003685A689D6822F07006DE
:100F60000A6832435A600D4B02689A4208D0B2F1C7
:100F7000804F05D00A4B9A4202D00A4B9A4204D1C4
:100F8000496825F080031943916080F83D400021B5
:100F900080F83C10084670BD022070BD002C014056
:100FA000000400400008004010B5040003D094F88D
:100FB0003D0010B107E0012010BD002084F83C0086
:100FC000204600F01FF8022084F83D00211D206813
:100FD00000F032FC012084F8460084F83E0084F8DA
:100FE0003F0084F8400084F8410084F8420084F80F
:100FF000430084F8440084F8450084F83D00002054
:1010000010BD000008B50068B0F1804F12D10A4849
:10101000C16941F00101C161C069002200F0010015
:10102000009011461C20FFF7C3FCBDE808401C20BF
:10103000FFF7B0BC08BD00000010024090F83D1062
:10104000012901D001207047022180F83D1001687C
:10105000CA6842F00102CA6000680B49884208D0A1
:10106000B0F1804F05D00949884202D00849884232
:1010700004D1816801F00701062903D0016841F01D
:101080000101016000207047002C01400004004075
:101090000008004070B5044690F83C000025012887
:1010A00017D0012684F83C60022084F83D002068B7
:1010B000826822F0770222F47F428260086850281A
:1010C00038D00DDC20284FD005DC90B3102811D18A
:1010D0004AE0022070BD302846D040280AD13BE0CB
:1010E00060282FD070280DD0B0F5805F03D0B0F508
:1010F000005F12D0012584F83D60002084F83C0098
:10110000284670BDCB68D1E90121206800F0CAFBF8
:101110002068816841F0770109E0CB68D1E90121BD
:10112000206800F0BFFB2068816841F48041816045
:10113000E1E719E0CA684968206800F0C5FB502162
:10114000206806E0CA684968206800F0CEFB60218C
:10115000206800F0B1FBCEE7CA684968206800F05B
:10116000B3FB40212068F4E7226801461046F0E70F
:10117000704770B50446006801694FF00005C94327
:10118000890715D4C168C943890711D4E91E0161D3
:1011900001202077206880698007204602D0FFF771
:1011A000E7FF04E000F098F8204600F096F8257775
:1011B00020680169C943490717D4C168C943490771
:1011C00013D46FF004010161022020772068806948
:1011D00010F4407F204602D0FFF7CAFF04E000F081
:1011E0007BF8204600F079F8257720680169C9432B
:1011F000090716D4C168C943090712D46FF0080162
:101200000161042020772068C0698007204602D051
:10121000FFF7AEFF04E000F05FF8204600F05DF855
:10122000257720680169C943C90617D4C168C94335
:10123000C90613D46FF010010161082020772068DF
:10124000C06910F4407F204602D0FFF791FF04E010
:1012500000F042F8204600F040F825772068016948
:10126000C943C90708D1C168C943C90704D1891E48
:101270000161204600F032F820680169C94309067F
:1012800009D4C168C943090605D46FF08001016122
:101290002046FFF753FE20680169C943490609D477
:1012A000C168C943490605D46FF040010161204679
:1012B00000F028F820680169C94389060BD4C16889
:1012C000C943890607D46FF0200101612046BDE8BB
:1012D0007040FFF734BE70BD7047704710B5074CC3
:1012E0002068401C20606168884206DD4FF4005190
:1012F0000348FFF7D1F80020206010BD0000002057
:10130000001001407047FEE701684A69D243520568
:101310000FD46FF480624A61002140F8301F202210
:1013200042738173026942F0040202610173012079
:1013300070470020704700002DE9F84F0446006810
:1013400089460B9D01689846174641F4806101600B
:101350002068016841F48071016000954FF0011B25
:101360000022594620460A9B00F064F84FF4007AA8
:1013700040B120680068C00501D5C4F840A0032032
:10138000BDE8F88F216809F0FE0008612B46284966
:1013900020460A9A00F096F8F0BB206841698069FF
:1013A00000902A4620460A9900F022F940B1206CAC
:1013B00004283AD12068016841F40071016034E0EA
:1013C000FEB2B8F1010F09D02168380A08612A4637
:1013D00020460A9900F00CF90028E8D1206806613F
:1013E0002A4620460A9900F003F90028DFD1206838
:1013F000016841F480710160009500225946204641
:101400000A9B00F017F80028B3D1216809F0FF000B
:1014100040F00100086100E007E02B460449204647
:101420000A9A00F04FF80028AAD00120A8E700008F
:10143000020001002DE9F047984617460D46044684
:10144000C1F30746DDF820902AE000BFB8F1FF3F66
:1014500026D0FFF72FF8A0EB0901414502D8B8F1DB
:10146000000F1DD12068012E16D0806925EA0000EA
:101470000004000C12D00020B84211D1002044F822
:10148000300F20216173A073216941F02001216197
:1014900020730120BDE8F0874069E7E70120EBE712
:1014A0002068012E0AD0806925EA00000004000CA3
:1014B00006D00020B842C9D00020EBE74069F3E72E
:1014C0000120F7E72DE9F047984616460D460446F9
:1014D0004FF000094FF0200AC1F3074723E02068CE
:1014E0004069C043400515D42068016841F400718B
:1014F000016021686FF480604861C4F8309084F81E
:101500003DA084F83E90216C41F00401216484F8F0
:101510003C9021E0701C06D0FEF7CCFFA0EB080049
:10152000B04203D816B1012F1FD021E02068012F4F
:1015300015D0806925EA00000004000C18D000BF17
:1015400044F8309F84F80DA084F80E90216941F092
:101550002001216184F80C900120BDE8F0874069EA
:1015600025EA00000004000CEAD12068406901E08F
:101570002068806925EA00000004000CAFD1ECE788
:101580002DE9F041002590460E460446202728E02C
:101590004069C043C0060CD454F8301B6FF01000F3
:1015A000486144F810596777A577206A206225774B
:1015B00014E0FEF77FFFA0EB0800B04200D886B928
:1015C00020684069C04340060BD544F8305F67731C
:1015D000A573206940F02000206125730120BDE83B
:1015E000F08120684169C9434906D1D40020F6E75B
:1015F00070B516460D4604461EE02046FFF784FEF1
:1016000008B1012070BD681C16D0FEF753FF801B87
:10161000A84200D885B920684069C04300060BD5B0
:10162000002044F8300F20216173A073216941F03C
:10163000200121612073E4E720684069C04300066F
:10164000DBD4002070BD00002DE9F04786B00024F7
:101650003B480094019402940394816941F0100185
:101660008161816901F010010491816941F02001DB
:101670008161816901F020010491816941F00401D7
:101680008161816901F004010491816941F00801DF
:1016900081618069DFF8AC8000F008004FF40055EC
:1016A0000490002229464046FEF7FEFEDFF898909F
:1016B0004FF4F046002231464846FEF7F5FEDFF8CB
:1016C0008CA04FF46067002239465046FEF7ECFECE
:1016D0001120CDE90050022569464046CDE902457A
:1016E000FEF7EAFD41F21000CDE9000469465046DC
:1016F0000294FEF7E1FD48F20340CDE9000469469B
:1017000048460294FEF7D8FD0096012669464846F1
:101710000196CDE90245FEF7CFFDE801CDE90005D0
:10172000694650460395FEF7C7FDCDE90076694648
:101730005046CDE90245FEF7BFFD06B0BDE8F08793
:101740000010024000100140000C01400008014060
:1017500010B586B0002416480094019402940394B6
:1017600004944FF080410594016040F60F61C0E998
:1017700001141421C0E903148461FFF715FC08B1BA
:1017800072B6FEE74FF48050009069460848FFF7B4
:1017900081FC08B172B6FEE7049404A904480594DC
:1017A000FFF7CEFB002801D072B6FEE706B010BDF1
:1017B00088000020FEE7FEE770477047FFF79AB801
:1017C00030B58FB028216846FEF7FEFC14210AA828
:1017D000FEF7FAFC01210804CDE900100024029470
:1017E00002250491CDE907504FF4E01009906846B6
:1017F000FFF700FA08B172B6FEE70F20CDE90A053F
:101800004FF48060CDE90C4002210AA80E94FFF746
:1018100001F908B172B6FEE700224FF0E061104610
:10182000FFF7C4F90FB030BD704700000148FFF763
:10183000A0BC000088000020F0B50268164B174CD1
:10184000174D4FF08047984205D0B84203D0A042D0
:1018500001D0A84203D122F070064A683243984270
:1018600005D0B84203D0A04201D0A84203D122F44F
:101870004074CA6822434C6922F08002224302600D
:101880008A68C2620A688262984201D1096901636A
:1018900001214161F0BD0000002C01400004004026
:1018A0000008004010B5846842EA032224F47F4413
:1018B0000A432243826010BD826822F070020A430C
:1018C00042F007018160704710B5036A046A24F092
:1018D00001040462846924F0F00444EA021423F051
:1018E0000A020A438461026210BD10B5036A046AE9
:1018F00024F010040462846923F0A00324F47044EB
:1019000044EA023243EA01118261016210BDFEE73E
:101910000907090E002804DB00F1E02080F800141C
:10192000704700F00F0000F1E02080F8141D7047B0
:1019300000F00F0100F0F000000900EB800001EB67
:1019400040007047FEF7DEFFFFF73AFFFFF77CFE2F
:10195000294828494FF4804201602849416000210C
:101960008160C0E9031241618161C1610162FEF7DA
:10197000A7FD08B172B6FEE7FFF7EAFE1E48543035
:10198000FFF75CFB62B61E4C4FF47A752846FEF7F3
:1019900081FC012000F078F800EB800040006060DE
:1019A000022000F071F8A060032000F06DF8E06004
:1019B000A168322901DC162804DD606800EB800094
:1019C00080006060012000F01DF82061022000F01E
:1019D00019F86061032000F015F8A061042000F000
:1019E00011F8E06120690528D0DD60684000606082
:1019F000CCE700000054004034000020A086010025
:101A0000000000202DE9F04180461D484FF6FF718F
:101A100086B000884FF47A7401EA4001042303A8D9
:101A20008DE81900032201231648FEF70DFE9DF8EC
:101A30000E109DF80C609DF80D409DF80F0021F0F0
:101A40008005FFF775FFC7B22846FFF771FFC5B2E3
:101A50002046FFF76DFFC0B24146B8F1010F07D035
:101A6000022908D0032908D0B8F1040F00D130466C
:101A700006B0BDE8F0812846FAE73846F8E70000EE
:101A80002000002034000020F0B506461A484FF62A
:101A9000FF7185B000884FF47A7401EA4001032396
:101AA00003A88DE81900002201231448FEF7CCFD9D
:101AB0009DF80E109DF80C409DF80D50480603D57A
:101AC000880601D521F0200121F04000FFF730FF0A
:101AD000C7B22846FFF72CFFC5B22046FFF728FF04
:101AE000C0B2012E04D0022E04D0032E00D13846FD
:101AF00005B0F0BD2846FBE72000002034000020A0
:101B0000010202030405060708090A0B0C0D0E0F5B
:101B1000101000000000000000000102030406078E
:101B20000809000000000102030400004C1B00082B
:101B3000000000203400000028010008801B00087D
:101B400034000020FC0600004401000800000000F2
:101B5000F401000000000000000000000000000090
:101B6000000000000000000000000000680000000D
:101B70000100000010000000000000000024F4003C
:04000005080000ED02
:00000001FF
