:020000040800F2
:100000007007002089010008031800083B1300084E
:10001000011800088F0200085B19000800000000AA
:1000200000000000000000000000000007180008A9
:1000300091020008000000000518000809180008D7
:10004000A3010008A3010008A3010008A301000800
:10005000A3010008A3010008A3010008A3010008F0
:10006000A3010008A3010008A3010008A3010008E0
:10007000A3010008A3010008A3010008A3010008D0
:10008000A3010008A3010008A3010008A3010008C0
:10009000A3010008A3010008A3010008A3010008B0
:1000A000A3010008A3010008A3010008A3010008A0
:1000B00079180008A3010008A3010008A3010008A3
:1000C000A3010008A3010008A3010008A301000880
:1000D000A3010008A3010008A3010008A301000870
:1000E000A3010008A3010008A301000800F002F822
:1000F00000F03AF80AA090E8000C82448344AAF188
:100100000107DA4501D100F02FF8AFF2090EBAE885
:100110000F0013F0010F18BFFB1A43F0010318473B
:10012000301D0000501D0000103A24BF78C878C16F
:10013000FAD8520724BF30C830C144BF04680C60ED
:10014000704700000023002400250026103A28BF35
:1001500078C1FBD8520728BF30C148BF0B60704739
:100160001FB51FBD10B510BD00F05CF81146FFF7BC
:10017000F7FF01F00DFC00F07AF803B4FFF7F2FF8F
:1001800003BC00F07DF8000009488047094800479B
:10019000FEE7FEE7FEE7FEE7FEE7FEE7FEE7FEE737
:1001A000FEE7FEE704480549054A064B7047000094
:1001B00075180008ED00000870010020700700208D
:1001C00070030020700300204FF0000200B51346BA
:1001D00094469646203922BFA0E80C50A0E80C5067
:1001E000B1F12001BFF4F7AF090728BFA0E80C5018
:1001F00048BF0CC05DF804EB890028BF40F8042B11
:1002000008BF704748BF20F8022B11F0804F18BF7D
:1002100000F8012B704770477047704700487047DF
:10022000100100207546FFF7F9FFAE46050069464C
:10023000534620F00700854618B020B5FFF7B2FFFF
:10024000BDE820404FF000064FF000074FF00008D7
:100250004FF0000B21F00701AC46ACE8C009ACE858
:10026000C009ACE8C009ACE8C0098D46704710B5BC
:100270000446AFF300802046BDE81040FFF77DBF85
:1002800001491820ABBEFEE7260002007047FEE7DA
:10029000704700002DE9F84FDFF8B8910024A9F16C
:1002A000040B23460F2709F1040AABF1040EC9E041
:1002B0000125A5402A40AA427DD1674ED1F804C04D
:1002C000ACEB0608B44532D014DCBCF1030F3AD0D5
:1002D00009DCBCF1000F2AD0BCF1010F1CD0BCF12D
:1002E000020F31D11DE0BCF1110F17D0BCF1120F7C
:1002F0002AD119E0B8F5881F19D006DCB8F5803F7F
:1003000015D0B8F5801F1FD111E0B8F5001F0ED031
:10031000B8F5041F18D10AE0CB6815E0CB681B1DA7
:1003200012E0CB6808330FE0CB680C330CE08B682D
:100330002BB1012B4FF0080303D0456104E00423E7
:1003400002E0056100E00023FF2A01D8064601E033
:1003500000F104064FEA840501D9A5F12005D6F87D
:10036000008007FA05FC28EA0C0803FA05F548EABC
:100370000508C6F800804D68ED0062D5374DAE69BE
:1003800046F00106AE61AD6924F0030605F00105F3
:100390000095334D06EB050CDCF80850A607360F28
:1003A00007FA06F825EA0805DFF8B880404503D1CA
:1003B0004FF0000817E044E0DFF8AC80404502D180
:1003C0004FF001080FE0DFF8A480404502D14FF064
:1003D000020808E0DFF89880404502D14FF003089A
:1003E00001E04FF0040808FA06F848EA0508CCF8DE
:1003F00008804D68D9F80060ED024D4601D51643DE
:1004000000E096432E604D68DAF80060AD02554674
:1004100001D5164300E096432E604D68DBF800607E
:10042000AD035D4601D5164300E096432E604D684E
:10043000DEF80060ED03754601D5164300E09643F3
:100440002E60641C0D682A46E5407FF431AFBDE89C
:10045000F88F000008040140000011100010024055
:100460000000014000080140000C01400010014064
:10047000001401408068084000D001207047C26825
:1004800021EA02030A4043EA0241016170470AB1CE
:10049000016170470904FBE701488068704700006C
:1004A0006400002070B5040025D094F83D000025BC
:1004B00020B984F83C50204600F0E0F9242084F86C
:1004C0003D002068016821F0010101602068016899
:1004D00041F4004101602068016821F4004101609D
:1004E00000F020FB4D4A6168914201D84C4900E080
:1004F0004C49884201D2012070BD4B492368B0FBB2
:10050000F1F15E6826F03F060E435E606368934239
:1005100006D94FF4967359434FF47A73B1FBF3F154
:100520002368491C1E6A26F03F0631431962616840
:10053000914210D84900401EB0FBF1F2521CC2F3A8
:100540000B02042A01D2042022E0B0FBF1F0401C8F
:10055000C0F30B001CE0A268F2B301EBC10303EB94
:100560000116431EB3FBF6F35B1C43F480431B05EB
:1005700049D092B301EBC10202EB0111401EB0FB66
:10058000F1F0401CC0F30B0040F4804040F4004008
:100590002168CA694CF6FF739A431043C861D4E9D5
:1005A000071001432068026822F0C0021143016075
:1005B000D4E9030101432068826848F2FF339A437B
:1005C00011438160D4E9050108432168CA6822F01B
:1005D000FF021043C86001E00EE016E020680168E9
:1005E00041F0010101602564202084F83D0025636D
:1005F00084F83E50002070BD01EB4106431EB3FB62
:10060000F6F35B1CB3E70120C2E701EB4101401E9A
:10061000B0FBF1F0401CC0F30B00B7E7A08601006F
:1006200080841E0000093D0040420F002DE9FF4F6D
:1006300083B00025DDE910799A4693460446DDF83B
:1006400048800095FFF728FF064694F83D002028D3
:100650007CD11923012285492046009600F004FF31
:100660000028F5D194F83C0001286FD0012084F8CF
:100670003C0020680168C90703D1016841F001010D
:1006800001602068016821F400610160222084F883
:100690003D00402084F83E0025646762A4F82A905B
:1006A000608D20857248E062CDE9008653465A4647
:1006B0002046049900F05AFE00287DD1208DDFF8F5
:1006C000B491202768B1012814D00228206801685D
:1006D0001ED041F48061016020684169806900900A
:1006E000B6E02068416981690091016841F40071B8
:1006F0000160ADE02068016821F48061016072B69C
:100700002068416981690091016841F400710AE043
:1007100041F40061016072B620684169816900910D
:10072000016821F48061016062B691E0032868D815
:1007300001280CD0022843464FF0000249462046CB
:1007400000960FD000F090FEB0BB10E08BE0324678
:100750004146204600F02EFF70BB20680069616AA8
:1007600008706CE000F080FE30BB72B634E02068A8
:10077000016821F48061016072B620680069616AD5
:100780000870606A401C6062208D401E2085608D6C
:10079000401E6085384846F2A8110068B0FBF1F0B1
:1007A000C0EBC00000EB80000090401E009008D01D
:1007B00020684069C04300E029E040070CD500985C
:1007C000F3E744F8305F6773A573206940F02000B9
:1007D000206162B625731AE02068016841F4007157
:1007E000016020680069616A0870606A401C60628C
:1007F000218D491E2185618D491E618562B6216862
:100800001BE032464146204600F0D4FE18B10120DC
:1008100007B0BDE8F08F20680069616A0870606AFF
:10082000401C6062218D491E2185618D491E6185B4
:1008300021684A69D24352070AD409690170606A83
:10084000401C6062208D401E2085608D401E6085AA
:10085000208D00287FF46AAF84F83D7084F83E5004
:1008600084F83C50D4E70220D2E7000002001000D8
:100870000000FFFF040001007000002010B586B0EA
:100880000021009101910291039100680F49884273
:100890001AD10F4CA06940F00800A061A069694618
:1008A00000F008000490C020009012200190032066
:1008B00003900848FFF7EEFCE06940F40010E061A7
:1008C000E06900F40010049006B010BD0054004030
:1008D00000100240000C0140024881680278114477
:1008E0008160704764000020074810B5016841F03E
:1008F00010010160032000F06DF80F2000F006F8F1
:1009000000F024F8002010BD0020024070B50D4D0D
:1009100004464FF47A712878B1FBF0F00A4909686F
:10092000B1FBF0F000F0E8FA48B9102C07D2002231
:100930002146501E00F02EF800206C6070BD012092
:1009400070BD00006400002070000020094808B558
:10095000816941F001018161816901F0010100912A
:10096000C16941F08051C161C06900F080500090C0
:1009700008BD000000100240002809DB00F01F0243
:10098000012191404009800000F1E020C0F80011F1
:1009900070470000F0B40E4B1B680C46C3F30223F3
:1009A000C3F10705042D00D90425191D072901D21B
:1009B000002300E0DB1E012606FA05F1491E214056
:1009C00099409E40761E16403143F0BC00F0C6BFF1
:1009D0000CED00E0064900F0070208684FF6FF033F
:1009E000184040EA0220034A1043086070470000A4
:1009F0000CED00E00000FA052DE9F0470F46050078
:100A000061D0434E306800F00700B84209D2306828
:100A100020F0070038433060306800F00700B8422B
:100A200051D128683B4C810712D5400703D5606837
:100A300040F4E06060602878000703D5606840F407
:100A4000605060606068A96820F0F0000843606052
:100A50002878C00728D06868012810D021680228AB
:100A600010D0890700292EDA616821F003010143C3
:100A70006160FFF711FD804641F288390DE0216881
:100A80008903EFE78901EDE7FFF706FDA0EB080119
:100A9000494502D90320BDE8F0876068696800F025
:100AA0000C00B0EB810FEFD1306800F00700B842C6
:100AB0000BD9306820F0070038433060306800F010
:100AC0000700B84201D00120E5E72878400705D5A6
:100AD0006068E96820F4E0600843606028780007F7
:100AE00006D56068296920F4605040EAC100606062
:100AF00000F028F86168084AC1F30311515CC8404E
:100B00000649086006480068FFF700FF0020C2E7BA
:100B10000020024000100240361E00087000002035
:100B2000680000200448054900684968044AC1F388
:100B30000221515CC8407047700000200010024044
:100B4000461E00080E4A51680E4801F00C03042BA3
:100B500011D0082B0FD10C48C1F38343C903C05CEB
:100B60000AD55168084AC1F34041921E515C054ABA
:100B70005043B0FBF1F07047044948437047000010
:100B80000010024000127A00261E000800093D00F5
:100B900030B585B000200290022001900320039020
:100BA0000B4C4FF480700090A0690D4640F004009B
:100BB000A061A069694600F0040004900548FFF7B1
:100BC00069FB606820F0E0602843606005B030BDDC
:100BD00000100240000801402DE9F84F040070D0D9
:100BE0002078C04DC00749D06868C0F38100012853
:100BF00007D06868C0F38100022809D16868C00383
:100C000006D52868800339D560680028E7D035E02C
:100C10006068B0F5803F0BD010B1B0F5A02F11D0B7
:100C2000286820F480302860286820F4802002E0C2
:100C3000286840F480302860606890B1FFF72CFC91
:100C400006460AE0286840F480202860F0E700BFEC
:100C5000FFF722FC801B642873D828688003F7D52F
:100C60000CE0FFF719FC064605E000BFFFF714FC97
:100C7000801B6428F0D828688003F7D420789A4E27
:100C800080074FF001094FF0000839D5686810F06F
:100C90000C0F07D06868C0F38100022809D168688A
:100CA000C00306D42868800714D52069012808D11C
:100CB00010E02069B0B1C6F80090FFF7EDFB0746E1
:100CC00005E00AE1FFF7E8FBC01B0228C4D828684A
:100CD0008007F7D52868616920F0F80040EAC10074
:100CE00028600DE0C6F80080FFF7D6FB074604E059
:100CF000FFF7D2FBC01B022823D828688007F7D44F
:100D0000207800072CD57948A169D9B1C0F80090A6
:100D1000FFF7C2FB074604E0FFF7BEFBC01B02283B
:100D20000FD8686A8007F7D571484FF4FA51006808
:100D3000B0FBF1F0009000BF0098411E0091FAD284
:100D40000EE080E0C0F80080FFF7A6FB074604E055
:100D5000FFF7A2FBC01B022875D8686A8007F7D48A
:100D60002078400760D5E8690027C00008D4E8690A
:100D700040F08050E861E869012700F08050009061
:100D80005C480168C90513D40168834641F4807149
:100D90000160FFF781FB824606E000BFFFF77CFBA6
:100DA000A0EB0A0064284ED8DBF80000C005F5D59A
:100DB000E06801280AD008B1052813D0286A20F07D
:100DC00001002862286A20F0040002E0286A40F04E
:100DD00001002862E06841F2883B98B1FFF75CFBB4
:100DE00082460BE0286A40F004002862EEE700BF6C
:100DF000FFF752FBA0EB0A0159455AD8286A800731
:100E0000F6D50CE0FFF748FB824605E0FFF744FB10
:100E1000A0EB0A0159454CD8286A8007F6D41FB1C7
:100E2000E86920F08050E861E06988B36968C1F33F
:100E30008101022944D00228C6F8608004D0FFF75F
:100E40002BFB044638E034E0FFF726FB074604E0BE
:100E5000FFF722FBC01B02282BD828688001F7D49B
:100E6000206AB0F5803F05D16868A16820F40030A1
:100E700008436860D4E908010843696821F47411E3
:100E800008436860C6F86090FFF706FB044606E07A
:100E900025E000BFFFF700FB001B022809D82868E7
:100EA0008001F7D51BE000BFFFF7F6FA001B022810
:100EB00002D90320BDE8F88F28688001F4D40EE041
:100EC0000128F7D06868226A00F48031914204D189
:100ED000616A00F47010884201D00120EAE7002026
:100EE000E8E7000000100240000042428004424255
:100EF000700000200070004010B5401EB0F1807FEF
:100F000001D3012010BD4FF0E02460610F21601774
:100F100000F024FD0020A06107202061002010BD0A
:100F20007047704770B590F83C20012A26D0012404
:100F300080F83C40022280F83D2003685A689D6892
:100F400022F070060A6832435A600D4B02689A42DA
:100F500008D0B2F1804F05D00A4B9A4202D00A4B1A
:100F60009A4204D1496825F080031943916080F8C2
:100F70003D40002180F83C10084670BD022070BD45
:100F8000002C0140000400400008004010B504009F
:100F900003D094F83D0010B107E0012010BD0020FF
:100FA00084F83C00204600F01FF8022084F83D0041
:100FB000211D206800F066FC012084F8460084F8BA
:100FC0003E0084F83F0084F8400084F8410084F833
:100FD000420084F8430084F8440084F8450084F813
:100FE0003D00002010BD000008B50068B0F1804F42
:100FF00012D10A48C16941F00101C161C0690022F2
:1010000000F00100009011461C20FFF7C3FCBDE872
:1010100008401C20FFF7B0BC08BD000000100240D3
:1010200090F83D10012901D001207047022180F87D
:101030003D100168CA6842F00102CA6000680B49AD
:10104000884208D0B0F1804F05D00949884202D0CB
:101050000849884204D1816801F00701062903D0BC
:10106000016841F00101016000207047002C01403F
:10107000000400400008004070B5044690F83C00B1
:101080000025012817D0012684F83C60022084F84E
:101090003D002068826822F0770222F47F4282605D
:1010A0000868502838D00DDC20284FD005DC90B3DC
:1010B000102811D14AE0022070BD302846D04028C7
:1010C0000AD13BE060282FD070280DD0B0F5805FAA
:1010D00003D0B0F5005F12D0012584F83D600020F8
:1010E00084F83C00284670BDCB68D1E90121206816
:1010F00000F0FEFB2068816841F0770109E0CB68D1
:10110000D1E90121206800F0F3FB2068816841F4F7
:1011100080418160E1E719E0CA684968206800F011
:10112000F9FB5021206806E0CA684968206800F091
:1011300002FC6021206800F0E5FBCEE7CA68496840
:10114000206800F0E7FB40212068F4E722680146B0
:101150001046F0E7704770B50446006801694FF02B
:101160000005C943890715D4C168C943890711D44B
:10117000E91E0161012020772068806980072046F0
:1011800002D0FFF7E7FF04E000F098F8204600F0F7
:1011900096F8257720680169C943490717D4C168C3
:1011A000C943490713D46FF004010161022020777D
:1011B0002068806910F4407F204602D0FFF7CAFF04
:1011C00004E000F07BF8204600F079F825772068ED
:1011D0000169C943090716D4C168C943090712D474
:1011E0006FF008010161042020772068C069800742
:1011F000204602D0FFF7AEFF04E000F05FF8204683
:1012000000F05DF8257720680169C943C90617D445
:10121000C168C943C90613D46FF0100101610820E9
:1012200020772068C06910F4407F204602D0FFF785
:1012300091FF04E000F042F8204600F040F82577E6
:1012400020680169C943C90708D1C168C943C907F2
:1012500004D1891E0161204600F032F8206801693E
:10126000C943090609D4C168C943090605D46FF00A
:10127000800101612046FFF753FE20680169C943E0
:10128000490609D4C168C943490605D46FF0400135
:101290000161204600F050F820680169C9438906C1
:1012A0000BD4C168C943890607D46FF020010161DE
:1012B0002046BDE87040FFF734BE70BD70477047F0
:1012C00070B51A4C00260125A068401CA060E1689A
:1012D000491CE1602169884210DDA9031448FFF729
:1012E000CEF8A660A169206A814204DA6278022AF7
:1012F00001D1491CA161814200DB65646169E0683C
:10130000884211DD4FF400610A48FFF7B8F8E66043
:10131000616AE069884204DA6278022A01D1401CDD
:10132000E061884200DBA56470BD00000000002081
:10133000000C0140000801407047FEE701684A695F
:10134000D24352050FD46FF480624A61002140F805
:10135000301F202242738173026942F0040202614D
:101360000173012070470020704700002DE9F84FFD
:101370000446006889460B9D01689846174641F46B
:10138000806101602068016841F48071016000950E
:101390004FF0011B0022594620460A9B00F064F8DA
:1013A0004FF4007A40B120680068C00501D5C4F848
:1013B00040A00320BDE8F88F216809F0FE00086115
:1013C0002B46284920460A9A00F096F8F0BB206880
:1013D0004169806900902A4620460A9900F022F966
:1013E00040B1206C04283AD12068016841F40071B2
:1013F000016034E0FEB2B8F1010F09D02168380A6B
:1014000008612A4620460A9900F00CF90028E8D124
:10141000206806612A4620460A9900F003F9002850
:10142000DFD12068016841F48071016000950022DD
:10143000594620460A9B00F017F80028B3D12168CE
:1014400009F0FF0040F00100086100E007E02B46D2
:10145000044920460A9A00F04FF80028AAD001203B
:10146000A8E70000020001002DE9F0479846174662
:101470000D460446C1F30746DDF820902AE000BF80
:10148000B8F1FF3F26D0FFF707F8A0EB090141456F
:1014900002D8B8F1000F1DD12068012E16D0806946
:1014A00025EA00000004000C12D00020B84211D13F
:1014B000002044F8300F20216173A073216941F0AE
:1014C0002001216120730120BDE8F0874069E7E732
:1014D0000120EBE72068012E0AD0806925EA000090
:1014E0000004000C06D00020B842C9D00020EBE771
:1014F0004069F3E70120F7E72DE9F04798461646E3
:101500000D4604464FF000094FF0200AC1F307478B
:1015100023E020684069C043400515D42068016875
:1015200041F40071016021686FF480604861C4F883
:10153000309084F83DA084F83E90216C41F0040185
:10154000216484F83C9021E0701C06D0FEF7A4FFD3
:10155000A0EB0800B04203D816B1012F1FD021E044
:101560002068012F15D0806925EA00000004000CD6
:1015700018D000BF44F8309F84F80DA084F80E9076
:10158000216941F02001216184F80C900120BDE81F
:10159000F087406925EA00000004000CEAD12068C9
:1015A000406901E02068806925EA00000004000C21
:1015B000AFD1ECE72DE9F041002590460E460446F8
:1015C000202728E04069C043C0060CD454F8301BE3
:1015D0006FF01000486144F810596777A577206ACA
:1015E0002062257714E0FEF757FFA0EB0800B04219
:1015F00000D886B920684069C04340060BD544F83E
:10160000305F6773A573206940F020002061257367
:101610000120BDE8F08120684169C9434906D1D461
:101620000020F6E770B516460D4604461EE020463B
:10163000FFF784FE08B1012070BD681C16D0FEF7CC
:101640002BFF801BA84200D885B920684069C043A1
:1016500000060BD5002044F8300F20216173A073E1
:10166000216941F0200121612073E4E7206840698D
:10167000C0430006DBD4002070BD00002DE9F04718
:1016800086B0002441480094019402940394816937
:1016900041F010018161816901F0100104918169BB
:1016A00041F020018161816901F02001049181698B
:1016B00041F004018161816901F0040104918169B3
:1016C00041F0080181618069314E00F008004FF45B
:1016D00000550490002229463046FEF7D8FEDFF878
:1016E000B4A04FF4F047002239465046FEF7CFFE33
:1016F000DFF8A4904FF46068002241464846FEF7A8
:10170000C6FE1120CDE90050022569463046CDE9DC
:101710000245FEF7BFFD41F21000CDE90004694625
:1017200048460294FEF7B6FDA803CDE900046946D9
:1017300050460294FEF7AEFD032001268DE85100CD
:1017400069465046FEF7A6FDCDE90076694650464B
:10175000CDE90245FEF79EFDE801CDE900056946A9
:1017600048460395FEF796FDCDE900866946484652
:10177000CDE90245FEF78EFD68028DE8310069462D
:101780005046FEF787FD06B0BDE8F0870010024026
:1017900000100140000C01400008014010B586B067
:1017A00000241648009401940294039404944FF08A
:1017B00080410594016040F26711C0E901140121E4
:1017C000C0E903148461FFF7E1FB08B172B6FEE7DC
:1017D0004FF48050009069460848FFF74DFC08B16F
:1017E00072B6FEE7049404A904480594FFF79AFB37
:1017F000002801D072B6FEE706B010BDC800002078
:10180000FEE7FEE770477047FFF766B830B58FB068
:1018100028216846FEF7D8FC14210AA8FEF7D4FC5C
:1018200001210804CDE9001000240294022504914E
:10183000CDE907504FF4E01009906846FFF7CCF966
:1018400008B172B6FEE70F20CDE90A054FF48060BB
:10185000CDE90C4002210AA80E94FFF7CDF808B19B
:1018600072B6FEE700224FF0E0611046FFF790F9F4
:101870000FB030BD704700000148FFF76CBC00009E
:10188000C8000020F0B50268164B174C174D4FF0FA
:101890008047984205D0B84203D0A04201D0A84268
:1018A00003D122F070064A683243984205D0B8420C
:1018B00003D0A04201D0A84203D122F44074CA68E8
:1018C00022434C6922F08002224302608A68C2628D
:1018D0000A688262984201D109690163012141616C
:1018E000F0BD0000002C0140000400400008004052
:1018F00010B5846842EA032224F47F440A43224359
:10190000826010BD826822F070020A4342F0070133
:101910008160704710B5036A046A24F00104046210
:10192000846924F0F00444EA021423F00A020A4312
:101930008461026210BD10B5036A046A24F01004C9
:101940000462846923F0A00324F4704444EA023260
:1019500043EA01118261016210BDFEE70907090E29
:10196000002804DB00F1E02080F80014704700F04C
:101970000F0000F1E02080F8141D704700F00F0107
:1019800000F0F000000900EB800001EB4000704720
:10199000FEF7AAFFFFF73AFFFFF770FEDC48DB49CE
:1019A00000250160DB49C0E901154FF48041C0E921
:1019B000035145618561C5610562FEF773FD08B19C
:1019C00072B6FEE7FFF7EAFED1485430FFF728FB76
:1019D00062B60121D04E3046FEF74CFD0327CF4CB6
:1019E0004FF4005B01280BD1012259463046FEF727
:1019F0004EFD0022B1143046FEF749FD6770656464
:101A00000221B0463046FEF735FDC54E4FF48069E1
:101A100001280BD1012249463046FEF738FD00224D
:101A200071153046FEF733FD6770A5644FF0010A6B
:101A3000207800287ED0012804D002287BD00328FB
:101A40004BD103E1206B08380F2800D32770A06B1F
:101A5000032801DD092800DB2570607830B10128FA
:101A60000DD002283AD00328EAD115E04946404675
:101A7000FEF700FD0128E3D1E564256548E049460D
:101A80004046FEF7F7FC0028DAD1002259464046CE
:101A9000FEF7FDFC00227EE001214046FEF7EAFC55
:101AA00038B9012211034046FEF7F1FCC4F84CA0FE
:101AB000656502214046FEF7DDFC38B9012251027E
:101AC0003046FEF7E4FCC4F850A0A565E06C0028A1
:101AD00003D0206D0028FBD06570E6E0606C20B17B
:101AE000012211034046FEF7D2FCA06C20B1012276
:101AF00051023046FEF7CBFC606C18B1A06C08B107
:101B000084F801A049464046FEF7B4FC0028E4D121
:101B1000012259464046FEF7BAFC012249463046AA
:101B2000FEF7B5FC00224FF480514046FEF7AFFCB3
:101B3000002201E006E0B2E04FF400713046FEF70B
:101B4000A6FCB1E0206B08380F2801D302202070DA
:101B500084F800A0607830B1012810D00228BDD0F0
:101B600003280BD12BE049464046FEF783FC0128B1
:101B700004D1C1034046FEF77DFCE0B395E0494641
:101B80004046FEF777FC002818D10122594640460E
:101B9000FEF77DFC012249463046FEF778FC002224
:101BA0004FF480514046FEF772FC00224FF4007162
:101BB0003046FEF76CFC67706564A56475E0E06C08
:101BC00020B901214046FEF755FC38B90122110326
:101BD0004046FEF75CFCC4F84CA06565206D20B95A
:101BE00002214046FEF746FC48B901225102404618
:101BF000FEF74DFC00E012E0C4F850A0A565E06CD3
:101C000020B1206D10B16570C4F85CA04946404613
:101C1000FEF730FC012848D1E06D012845D10022B3
:101C200059464046FEF733FC002249463046FEF74F
:101C30002EFC00224FF480514046FEF728FC002283
:101C40004FF400713046FEF722FC10E06168206B13
:101C5000814201DB162801DA84F800A060780028B0
:101C6000DDD0012821D0022804D003281DD1022074
:101C700060701AE0606C20B1012211034046FEF74B
:101C800006FCA06C20B1012251023046FEF7FFFB9A
:101C9000606C50B1A06C40B184F801A005E0206BED
:101CA00008380F2801D325706770012000F07EF8F6
:101CB000E062022000F07AF8A062032000F076F8DB
:101CC0002063012000F030F86063022000F02CF85F
:101CD000A063032000F028F8E063042000F024F85B
:101CE000206406280DD007280BD00720606094F8E8
:101CF0002C00C00707D0012259460A48FEF7C7FB4F
:101D000096E60920F2E70022F6E7000000540040C2
:101D100074000020A0860100000C0140000000209B
:101D200000080140001001402DE9F04180461D48A7
:101D30004FF6FF7186B000884FF47A7401EA4001D3
:101D4000042303A88DE81900032201231648FEF797
:101D50006DFC9DF80E109DF80C609DF80D409DF8EF
:101D60000F0021F08005FFF709FEC7B22846FFF7F4
:101D700005FEC5B22046FFF701FEC0B24146B8F1EC
:101D8000010F07D0022908D0032908D0B8F1040FA9
:101D900000D1304606B0BDE8F0812846FAE7384663
:101DA000F8E700006000002074000020F0B506464F
:101DB0001A484FF6FF7185B000884FF47A7401EA33
:101DC0004001032303A88DE81900002201231448D1
:101DD000FEF72CFC9DF80E109DF80C409DF80D5060
:101DE000480603D5880601D521F0200121F04000E6
:101DF000FFF7C4FDC7B22846FFF7C0FDC5B22046B5
:101E0000FFF7BCFDC0B2012E04D0022E04D0032E79
:101E100000D1384605B0F0BD2846FBE76000002041
:101E200074000020010202030405060708090A0BDA
:101E30000C0D0E0F10100000000000000000010249
:101E40000304060708090000000001020304000063
:101E5000701E000800000020740000002801000827
:101E6000E41E000874000020FC0600004401000885
:101E70000103000007000000000000000000000057
:101E800032000000320000000000000000000000EE
:101E9000204E00003075000000000000000000002F
:101EA0000000000000000000000000000000000032
:101EB0000000000000000000000000000000000022
:101EC0000000000000000000000000000000000012
:101ED0006800000001000000100000000000000089
:041EE0000024F400E6
:04000005080000ED02
:00000001FF
